:030000000200EB10
:10000300EB30E11320E00EC083C08289828A83E053
:10001300D082D08322E3226405700EC083C082891C
:0B002300828A8393D082D08322E722E0
:10002E00C2D1C2D5EE30E707D2D1D2D51200DBEC69
:10003E0030E705B2D11200E312005630D1031200A0
:10004E00DB30D5031200E322BC000EBE0032EF8D72
:10005E00F08420D226FFADF0227B0075F008EF2F42
:10006E00FFEE33FEEB33FBEE9DEB9C4005FBEE9D6E
:10007E00FE0FD5F0E9E4CECDCBCC227EFF7FFF2262
:10008E00EDB410005022EE8DF084FEEF54F045F0EA
:10009E00C48DF084C4FCEF540FC445F0C48DF084BD
:1000AE00FFADF0E4CC4FFF22EE8DF08420D2CC7E5B
:1000BE0008CEC5F0CDCBEF2FFFED33FD10D7079B4C
:1000CE005005D5F0F1229BFD0FD5F0EA22C3E49F37
:0D00DE00FFE49EFE22C3E49DFDE49CFC2295
:1000EB00758117E4787FF6D8FD9005EBE4937002E9
:1000FB00804EC31392D5C31392D1FFA3E493F8B0F0
:10010B00D5402130D505E4A393F5A0E420D102A37B
:10011B009320D507F608DFF3A380D1F208B800F6D9
:10012B0005A080F2E8030303541F2420F9E85407C9
:10013B00F8E4D333B80002800333D8FD47F780D8F7
:06014B0075A0FF0203375E
:100151007F3812016B7F0E12016B7F0612016B7FDC
:0A0161000C12016B7F8012016B226B
:0E016B008FA0C292C291D2901201AAC290221D
:0E0179008FA0D292C291D2901201AAC29022FF
:100187008B148A158916AB14AA15A91612000360D9
:010197001156
:100198000516E51670020515120003FF1201798095
:0201A800E4224F
:0901AA007BE97A04DBFEDAFC2299
:1001B300758C00758A00D2930000000000000000D7
:0501C3000000C29322C0
:1001C800758C00758A00D2950000000000000000C0
:0501D8000000C29522A9
:0601DD001201B32094059D
:1001E3001201B380F82094FD858C83858A82758AF9
:1001F300FF758CFFE583B47505E582B43000500FBD
:10020300AE83AF82E4FC7D3B1200568F028002E492
:04021300FA8A07223A
:060217001201C82096054B
:10021D001201C880F82096FD858C83858A82758AA7
:10022D00FF758CFFE583B47505E582B43000500F82
:10023D00AE83AF82E4FC7D3B1200568F028002E458
:04024D00FA8A072200
:03025100E4FCFDCD
:100254007BE87A04DBFEDAFC7E037FE80DED7001B7
:080264000CBC03ECBDE8E9222B
:03026C00E4FCFDB2
:10026F007BE87A04DBFEDAFC7E037FE80DED70019C
:08027F000CBC01ECBDF4E92206
:10028700544845205041524B494E47204C4F54004B
:1002970057454C434F4D4520544F204C4F54004336
:1002A7006865636B696E6720537061636500506CA6
:1002B7006561736520576169742E2E2E0056414380
:1002C700414E435920415641494C41424C4500500B
:1002D7004C454153452050524F43454544005645F0
:1002E7004849434C4520454E5445524544005769BB
:1002F7006474683A2000564143414E4349455320B0
:100307003D20005468616E6B796F752C20566973B8
:10031700697400416761696E00534F5252592C202E
:100327004E4F204D4F524500564143414E435900D1
:10033700758909758A00758C00D28C120151D2B269
:06034700E5124513700EE3
:10034D007F8012016B7B057A0279871201872097D6
:07035D004AE512451370444C
:100364007F0112016B7F8012016B7B057A02799702
:100374001201871202517F0112016B7F8012016BFF
:100384007B057A0279A61201877FC012016B7B0577
:100394007A0279B5120187E4F5127513017E077F9D
:1003A400D01202511201DD7508008F09120217756F
:1003B4000A008F0BE50B2509FBE50A3508FAE50D64
:1003C400C39BFBE50C9AF50E8B0F7FC012016BAE3D
:1003D4000EAF0FE4FC7D6412002EEF2430FF1201F7
:1003E40079AE0EAF0FE4FC7D0A12002EE4FC7D0A08
:1003F40012002EED2430FF120179AE0EAF0FE4FC93
:100404007D0A12002EED2430FF120179E5136401F8
:1004140045126003020517E5106480B48006E511F7
:09042400B40001D35003020517D6
:10042D007F0112016B7F8012016B7B057A0279C40B
:10043D001201877FC012016B7B057A0279D61201FA
:10044D008712026CE50E6480B48105E50FB42C00B3
:10045D0040030205E8E50E6480B48006E50FB46440
:07046D0001D350030205E872
:10047400E51124FFFBE51034FFF5108B117F011209
:10048400016B7F8012016B7B057A0279E51201878B
:100494007FC012016B7B057A0279F51201877FC751
:1004A40012016BAE0EAF0FE4FC7D6412002EEF243C
:1004B40030FF120179AE0EAF0FE4FC7D0A12002E5C
:1004C400E4FC7D0A12002EED2430FF120179AE0EF9
:1004D400AF0FE4FC7D0A12002EED2430FF120179E7
:1004E4001202517F0112016B7F8012016B7B057A2E
:1004F4000279FD1201877F8D12016BE5112430FF13
:10050400120179120251E4F512F5137F0112016B05
:10051400020347E512451360030205A6E50E648055
:10052400B48105E50FB42C005078E50E6480B480E6
:1005340006E50FB46401D34069E5106480B4800516
:07054400E511B40200505B59
:10054B00E5112401FBE43510F5108B117F0112012D
:10055B006B7F8012016B7B057A03790A1201877F0F
:10056B00C012016B7B057A03791A120187120251B3
:10057B007F0112016B7F8012016B7B057A0279FD83
:10058B001201877F8D12016BE5112430FF12017967
:10059B001202517F0112016B020347E513640145FF
:0F05AB00126003020347E5104511600302034786
:1005BA007F0112016B7F8012016B7B057A03792020
:1005CA001201877FC012016B7B057A03792F120112
:1005DA0087E4F512F5131202517F0112016B02032F
:0105EA0047C9
:0805EB00080C01E808100002F1
:0105F3000007
:00000001FF
